{
  "contractName": "election",
  "abi": [
    {
      "inputs": [],
      "payable": false,
      "stateMutability": "nonpayable",
      "type": "constructor"
    },
    {
      "anonymous": false,
      "inputs": [
        {
          "indexed": true,
          "internalType": "uint256",
          "name": "cand_id",
          "type": "uint256"
        }
      ],
      "name": "votedEvent",
      "type": "event"
    },
    {
      "constant": true,
      "inputs": [],
      "name": "CandCount",
      "outputs": [
        {
          "internalType": "uint256",
          "name": "",
          "type": "uint256"
        }
      ],
      "payable": false,
      "stateMutability": "view",
      "type": "function"
    },
    {
      "constant": true,
      "inputs": [
        {
          "internalType": "uint256",
          "name": "",
          "type": "uint256"
        }
      ],
      "name": "candidate",
      "outputs": [
        {
          "internalType": "uint256",
          "name": "id",
          "type": "uint256"
        },
        {
          "internalType": "string",
          "name": "party",
          "type": "string"
        },
        {
          "internalType": "string",
          "name": "name",
          "type": "string"
        },
        {
          "internalType": "uint256",
          "name": "v_count",
          "type": "uint256"
        }
      ],
      "payable": false,
      "stateMutability": "view",
      "type": "function"
    },
    {
      "constant": true,
      "inputs": [
        {
          "internalType": "address",
          "name": "",
          "type": "address"
        }
      ],
      "name": "voter",
      "outputs": [
        {
          "internalType": "bool",
          "name": "",
          "type": "bool"
        }
      ],
      "payable": false,
      "stateMutability": "view",
      "type": "function"
    },
    {
      "constant": false,
      "inputs": [
        {
          "internalType": "uint256",
          "name": "cand_id",
          "type": "uint256"
        }
      ],
      "name": "vote",
      "outputs": [],
      "payable": false,
      "stateMutability": "nonpayable",
      "type": "function"
    }
  ],
  "bytecode": "0x608060405234801561001057600080fd5b5061008b6040518060400160405280600381526020017f58595a00000000000000000000000000000000000000000000000000000000008152506040518060400160405280600c81526020017f414e4d4f4c20534841524d41000000000000000000000000000000000000000081525061018460201b60201c565b6101056040518060400160405280600381526020017f41424300000000000000000000000000000000000000000000000000000000008152506040518060400160405280601081526020017f414449544920535249564153544156410000000000000000000000000000000081525061018460201b60201c565b61017f6040518060400160405280601181526020017f6e6f6e65206f66207468652061626f76650000000000000000000000000000008152506040518060400160405280600481526020017f4e4f54410000000000000000000000000000000000000000000000000000000081525061018460201b60201c565b6102c9565b6002600081548092919060010191905055506040518060800160405280600254815260200183815260200182815260200160008152506001600060025481526020019081526020016000206000820151816000015560208201518160010190805190602001906101f5929190610224565b506040820151816002019080519060200190610212929190610224565b50606082015181600301559050505050565b828054600181600116156101000203166002900490600052602060002090601f016020900481019282601f1061026557805160ff1916838001178555610293565b82800160010185558215610293579182015b82811115610292578251825591602001919060010190610277565b5b5090506102a091906102a4565b5090565b6102c691905b808211156102c25760008160009055506001016102aa565b5090565b90565b6104f3806102d86000396000f3fe608060405234801561001057600080fd5b506004361061004c5760003560e01c80630121b93f146100515780631de43c4b1461007f57806339ca1d88146101a0578063af0dbe54146101be575b600080fd5b61007d6004803603602081101561006757600080fd5b810190808035906020019092919050505061021a565b005b6100ab6004803603602081101561009557600080fd5b8101908080359060200190929190505050610338565b604051808581526020018060200180602001848152602001838103835286818151815260200191508051906020019080838360005b838110156100fb5780820151818401526020810190506100e0565b50505050905090810190601f1680156101285780820380516001836020036101000a031916815260200191505b50838103825285818151815260200191508051906020019080838360005b83811015610161578082015181840152602081019050610146565b50505050905090810190601f16801561018e5780820380516001836020036101000a031916815260200191505b50965050505050505060405180910390f35b6101a8610498565b6040518082815260200191505060405180910390f35b610200600480360360208110156101d457600080fd5b81019080803573ffffffffffffffffffffffffffffffffffffffff16906020019092919050505061049e565b604051808215151515815260200191505060405180910390f35b6000803373ffffffffffffffffffffffffffffffffffffffff1673ffffffffffffffffffffffffffffffffffffffff16815260200190815260200160002060009054906101000a900460ff161561027057600080fd5b60008111801561028257506002548111155b61028b57600080fd5b60016000803373ffffffffffffffffffffffffffffffffffffffff1673ffffffffffffffffffffffffffffffffffffffff16815260200190815260200160002060006101000a81548160ff0219169083151502179055506001600082815260200190815260200160002060030160008154809291906001019190505550807ffff3c900d938d21d0990d786e819f29b8d05c1ef587b462b939609625b684b1660405160405180910390a250565b6001602052806000526040600020600091509050806000015490806001018054600181600116156101000203166002900480601f0160208091040260200160405190810160405280929190818152602001828054600181600116156101000203166002900480156103ea5780601f106103bf576101008083540402835291602001916103ea565b820191906000526020600020905b8154815290600101906020018083116103cd57829003601f168201915b505050505090806002018054600181600116156101000203166002900480601f0160208091040260200160405190810160405280929190818152602001828054600181600116156101000203166002900480156104885780601f1061045d57610100808354040283529160200191610488565b820191906000526020600020905b81548152906001019060200180831161046b57829003601f168201915b5050505050908060030154905084565b60025481565b60006020528060005260406000206000915054906101000a900460ff168156fea265627a7a72315820f21588709a7f9521b84109f223a61ae80e6560df2931b7a0f028e0d759772b5964736f6c63430005100032",
  "source": "pragma solidity ^0.5.0;\n  contract election{\n\tstruct cand{\n\t\tuint id;\n\t\tstring party;\n\t\tstring name;\n\t\tuint v_count;\n\t}\n\tconstructor() public {\n\t\taddcand(\"XYZ\" , \"ANMOL SHARMA\");\n\t\taddcand(\"ABC\", \"ADITI SRIVASTAVA\");\n\t\taddcand(\"none of the above\" , \"NOTA\");\n\t}\n\n\t event votedEvent (\n        uint indexed cand_id\n        );\n\tmapping (address => bool) public voter;\n\t\n\tmapping(uint => cand) public candidate;\n\tuint public CandCount;\n\tfunction addcand(string memory p,string memory n) private{\n\t\tCandCount++;\n\t\tcandidate[CandCount]=cand(CandCount,p,n,0);\n\t}\n\n\tfunction vote (uint cand_id) public {\n\n\t\trequire (!voter[msg.sender]);\n\t\trequire (cand_id>0 && cand_id<=CandCount);\n\t\t\n\t\tvoter[msg.sender]=true;\n\t\tcandidate[cand_id].v_count++;\n\t\temit votedEvent(cand_id);\n\t\t\n\t}\n\t\n\t\n}\n",
  "sourcePath": "C:/Users/HP/Downloads/a3new/A3try-os--master/election/contracts/election.sol",
  "compiler": {
    "name": "solc",
    "version": "0.5.16+commit.9c3226ce.Emscripten.clang"
  },
  "schemaVersion": "3.2.4",
  "updatedAt": "2020-09-05T21:41:56.702Z",
  "networkType": "ethereum",
  "devdoc": {
    "methods": {}
  },
  "userdoc": {
    "methods": {}
  }
}